:100000000C942A000C942E020C9455020C947C0241
:100010000C943C000C943C000C943C000C943C0070
:100020000C943C000C943C000C943C000C943C0060
:100030000C943C000C943C000C943C000C943C0050
:100040000C943C000C943C000C943C000C943C0040
:100050000C943C0011241FBECFE5D8E0DEBFCDBF1D
:1000600020E0A0E6B0E001C01D92A836B207E1F79B
:100070000E9485000C94AD020C9400006091600019
:10008000809161000E9485010895CF93C62F0E9440
:10009000B901C23079F0C330C1F0C13001F540E0A0
:1000A00062E083E00E940C0141E062E083E00E9494
:1000B000930015C040E063E083E00E940C0141E042
:1000C00063E083E00E9493000AC040E062E081E0C8
:1000D0000E940C0141E062E081E00E949300CF9118
:1000E0000895CF93DF93D82FC62F41E00E940C01D3
:1000F000D0936100C0936000DF91CF910895682F85
:100100008EE390E00E94250208950E94A30261E020
:1001100081E00E94450060E080E00E94710081E083
:100120000E947F00FFCF813019F130F08230E1F181
:10013000833009F455C00895442319F0413069F023
:1001400008952BB381E090E002C0880F991F6A9553
:10015000E2F7809582238BBB08952BB381E090E07A
:1001600002C0880F991F6A95E2F7822B8BBB089516
:10017000442319F0413069F0089528B381E090E0FC
:1001800002C0880F991F6A95E2F78095822388BB89
:10019000089528B381E090E002C0880F991F6A9506
:1001A000E2F7822B88BB0895442319F0413069F0AF
:1001B000089525B381E090E002C0880F991F6A95E9
:1001C000E2F78095822385BB089525B381E090E016
:1001D00002C0880F991F6A95E2F7822B85BB0895AC
:1001E000442319F0413069F0089522B381E090E092
:1001F00002C0880F991F6A95E2F78095822382BB1F
:10020000089522B381E090E002C0880F991F6A959B
:10021000E2F7822B82BB0895813019F130F08230F1
:10022000E1F1833009F455C00895442319F04130B9
:1002300069F008952AB381E090E002C0880F991F09
:100240006A95E2F7809582238ABB08952AB381E0FC
:1002500090E002C0880F991F6A95E2F7822B8ABB53
:100260000895442319F0413069F0089527B381E0DF
:1002700090E002C0880F991F6A95E2F7809582236B
:1002800087BB089527B381E090E002C0880F991FD3
:100290006A95E2F7822B87BB0895442319F0413019
:1002A00069F0089524B381E090E002C0880F991F9F
:1002B0006A95E2F78095822384BB089524B381E098
:1002C00090E002C0880F991F6A95E2F7822B84BBE9
:1002D0000895442319F0413069F0089521B381E075
:1002E00090E002C0880F991F6A95E2F780958223FB
:1002F00081BB089521B381E090E002C0880F991F6F
:100300006A95E2F7822B81BB0895813089F028F04D
:100310008230C9F0833011F108952BB381E090E071
:1003200002C0880F991F6A95E2F782278BBB089558
:100330002BB381E090E002C0880F991F6A95E2F725
:1003400082278BBB08952BB381E090E002C0880F19
:10035000991F6A95E2F782278BBB08952BB381E042
:1003600090E002C0880F991F6A95E2F782278BBB45
:100370000895823081F1833009F457C0813009F04B
:1003800063C0623081F018F4613031F020C0633016
:1003900089F06430B1F01BC085B78E7F85BF85B70B
:1003A000826085BF14C085B7816085BF85B78260D4
:1003B00085BF0DC085B7816085BF85B78D7F85BF3F
:1003C00006C085B78E7F85BF85B78D7F85BF8BB70C
:1003D00080648BBF0895623081F018F4613031F091
:1003E00020C0633089F06430B1F01BC085B78B7FCB
:1003F00085BF85B7886085BF14C085B7846085BF19
:1004000085B7886085BF0DC085B7846085BF85B717
:10041000877F85BF06C085B78B7F85BF85B7877F00
:1004200085BF8BB780688BBF0895613019F062304B
:1004300029F007C084B78F7B84BF03C084B7806472
:1004400084BF8BB780628BBF0895E62FF0E0EE0F7C
:10045000FF1FEE59FF4F9183808308951F920F92E3
:100460000FB60F9211242F933F934F935F936F9387
:100470007F938F939F93AF93BF93EF93FF93E091FD
:100480006400F09165000995FF91EF91BF91AF91E4
:100490009F918F917F916F915F914F913F912F919C
:1004A0000F900FBE0F901F9018951F920F920FB6CE
:1004B0000F9211242F933F934F935F936F937F93EA
:1004C0008F939F93AF93BF93EF93FF93E091660059
:1004D000F09167000995FF91EF91BF91AF919F91C6
:1004E0008F917F916F915F914F913F912F910F90DD
:1004F0000FBE0F901F9018951F920F920FB60F927C
:1005000011242F933F934F935F936F937F938F9318
:100510009F93AF93BF93EF93FF93E0916800F091A7
:1005200069000995FF91EF91BF91AF919F918F91D4
:100530007F916F915F914F913F912F910F900FBEDF
:100540000F901F9018958FB780688FBF8FB780640A
:0E0550008FBF8FB780628FBF0895F894FFCFE2
:00000001FF
